:100000000C94E0000C9408010C9408010C94080175
:100010000C9408010C9408010C9408010C9408013C
:100020000C9408010C9408010C9408010C949A0497
:100030000C9408010C9408010C9408010C9408011C
:100040000C945B080C9408010C94B3050C9478058F
:100050000C9408010C9408010C9408010C940801FC
:100060000C9426060C94080100407A10F35A00A064
:10007000724E18090010A5D4E80000E87648170071
:1000800000E40B54020000CA9A3B000000E1F505B1
:10009000000080969800000040420F000000A086FB
:1000A00001000000102700000000E803000000002D
:1000B0006400000000000A000000000001000000D1
:1000C00000002C76D888DC674F0823DFC1DFAE59EB
:1000D000E1B1B796E5E3E453C63AE651997696E87E
:1000E000E6C28426EB898C9B62ED407C6FFCEFBC02
:1000F0009C9F40F2BAA56FA5F490055A2AF75C932D
:100100006B6CF9676DC11BFCE0E40D47FEF520E662
:10011000B500D0ED902E0300943577050080841E45
:10012000080000204E0A000000C80C333333330FA0
:10013000986E12831141EF8D2114893BE65516CF3D
:10014000FEE6DB18D1844B381BF77C1D901DA4BB49
:10015000E424203284725E228100C9F124ECA1E5FE
:100160003D270000000023002600290000000000B9
:10017000240027002A0000000007000201000003FD
:100180000406000000000000000001020408102026
:100190004080010204081020010204081020000021
:1001A0000000250028002B000404040404040404B7
:1001B000020202020202030303030303A20C920CD5
:1001C00011241FBECFEFD8E0DEBFCDBF11E0A0E00D
:1001D000B1E0E8E5F0E302C005900D92AC35B1075F
:1001E000D9F724E0ACE5B1E001C01D92A030B20720
:1001F000E1F710E0CFEDD0E004C02197FE010E94AE
:100200001918CE3DD107C9F70E94C1080C94130FED
:100210000C940000CF92DF92EF92FF92CF93DF9386
:10022000EC01603282E078070CF03DC077FD06C03B
:10023000653B71052CF064EB70E002C060E070E09B
:10024000898128E830E06901C81AD10887FDD39474
:10025000CC0CDD1CCC0CDD1C0D2C000CEE08FF08BA
:100260008A8128E532E0281B310987FD3395220F6A
:10027000331F220F331FC901330FAA0BBB0B9C0185
:10028000AD012C193D094E095F09DB010E94A61141
:1002900024EB30E040E050E00E947C11C20ED31EFF
:1002A000E41EF51EB60138813C3080F5298188E8CE
:1002B00090E0821B910927FD9395880F991F880F65
:1002C000991F6817790784F08A8148E552E0481B36
:1002D000510987FD5395440F551F440F551FCB01FE
:1002E000461757070CF4CA014FB7F894232F30E094
:1002F000F901EE0FFF1F2E0F3F1FF901EE5FFD4FBB
:100300000297880F991F928381834FBFDF91CF910E
:10031000FF90EF90DF90CF9008950895089508958D
:10032000E091FD018091FC01E81730F4F0E0E45227
:10033000FE4F808190E008958FEF9FEF0895909198
:10034000FD018091FC01981750F4E92FF0E0E45290
:10035000FE4F208130E09F5F9093FD0102C02FEFA0
:100360003FEFC90108958091FC0190E02091FD01CB
:10037000821B910908950F931F93CF93DF93FC0184
:10038000A685B7858D01005C1F4FE80188819981A2
:1003900001968F739927AD014E5B5F4FEA0128816B
:1003A000398128173907D1F3E80128813981A20F53
:1003B000B31F6C93A685B785A05CBF4F11969C9325
:1003C0008E93A689B7892C9181E090E0078C02C0BA
:1003D000880F991F0A94E2F7822B8C9381E081A306
:1003E0000488F589E02D80818064808381E090E03D
:1003F000DF91CF911F910F910895FC0181A1882376
:1004000029F0A489B5898C9186FFFBCF11A20895AC
:10041000FC01A485B585FD01E05CFF4F20813181A1
:100420003296808191812817390779F080819181F6
:10043000A80FB91F8C91208131812F5F3F4F2F73FF
:1004400033273183208390E008958FEF9FEF089545
:10045000DC011C96ED91FC911D97DF01A05CBF4F64
:100460002D913C91119712968D919C91119728177F
:10047000390739F08D919C91E80FF91F808190E048
:1004800008958FEF9FEF0895FC0124853585F901CC
:10049000E05CFF4F80819181329620813181821B07
:1004A000930B8F73992708958DEE92E00C9444027C
:1004B000CF92DF92EF92FF920F931F93CF93DF9330
:1004C0006C01EB017B01E40EF51E00E010E0CE159F
:1004D000DF0561F06991D601ED91FC910190F08109
:1004E000E02DC6010995080F191FF1CFC801DF9152
:1004F000CF911F910F91FF90EF90DF90CF900895D3
:100500004F925F926F927F928F929F92AF92BF9223
:10051000CF92DF92EF92FF920F931F93CF93DF93CF
:10052000EC01288139813327F901EA58FE4F849183
:10053000F901E657FE4F0491F901E855FE4F149179
:100540001123A1F081110E947C07E12FF0E0EE0F52
:10055000FF1FEE59FE4FA591B491EC91E02391E07D
:1005600080E009F490E0092F182F02C000E010E0AD
:100570001D830C830130110511F481E08B878B857D
:10058000882391F00115110579F420E030E040E86E
:100590005FE36E817F81888599850E94CD138111EB
:1005A00003C081E08A8701C01A86B801110F880B49
:1005B000990B0E9446146E837F83888799878A856A
:1005C0008823C1F10E9410080E9444146B017C0131
:1005D000688B798B8A8B9B8B2C853D854E855F85BF
:1005E0000E9460134B015C0120E034E244E759E4CF
:1005F0000E94D2139B01AC0168A379A38AA39BA399
:100600006C8D7D8D8E8D9F8D0E94D213688F798F1A
:100610008A8F9B8F80922A0290922B02A0922C02AA
:10062000B0922D02C0922602D0922702E0922802B8
:10063000F092290288899989AA89BB898C879D872C
:10064000AE87BF870E94100840902A0250902B026C
:1006500060902C0270902D028090260290902702CC
:10066000A0902802B09029020E9444146B017C01E2
:1006700020E030E040EC5FE3C301B2010E94FB14D4
:10068000A50194010E9461139B01AC01C701B60151
:100690000E94F614181624F4188E198E1A8E1B8ECA
:1006A000688D798D8A8D9B8DDF91CF911F910F91F0
:1006B000FF90EF90DF90CF90BF90AF909F908F9082
:1006C0007F906F905F904F9008951F93CF93DF932B
:1006D000EC01162F88818C3008F04EC061E0812F2C
:1006E0000E94D4078881E82FF0E09F01220F331F7A
:1006F000E20FF31FEE5FFD4F1F739081907C192B6B
:10070000108319821A826CE00E94F9179CE0899F7D
:10071000B001112440E050E09B01240F351FF90186
:10072000EE0FFF1F2E0F3F1FF901EE5FFD4F90816F
:1007300096FD16C04F5F5F4F4C30510569F7811130
:100740000FC01092800082E080938100109285009B
:1007500010928400B19A80916F00826080936F0044
:10076000E881F0E0CF01880F991FE80FF91FEE5FD5
:10077000FD4F8081806480838881DF91CF911F91BC
:100780000895CF92DF92EF92FF920F931F93CF9332
:10079000DF937C01CB018A012091DB01222389F0C8
:1007A000EB016B01C40ED51ECC15DD0569F0699116
:1007B000D701ED91FC910190F081E02DC7010995E1
:1007C000F3CF642F0E945407C801DF91CF911F918E
:1007D0000F91FF90EF90DF90CF900895CF93DF932C
:1007E0001F92CDB7DEB769832091DB012223D1F0C0
:1007F0002091FE01203240F021E030E0FC01338303
:10080000228380E090E015C08091FF01E82FF0E0A6
:10081000E554FE4F998190838F5F8093FF01809311
:10082000FE0105C061E0CE0101960E94540781E0FF
:1008300090E00F90DF91CF910895CF93FC01C48198
:1008400021E02093DB01C093BA011092FF011092C6
:10085000FE018485682B89E592E00E94EE03909169
:10086000FE01913208F045C0809133028111FCCF26
:1008700082E08093330281E0809335028FEF809392
:1008800032021092570290935602ABEBB1E0E6E3CE
:10089000F2E080E0981721F02D9121938F5FFACF3D
:1008A0001092580280915802CC0FC82BC093580266
:1008B00080913402813061F41092340280915802A8
:1008C0008093BB008091BC0083FDF8CF85EC01C014
:1008D00085EE8093BC00809133028230E1F38091F9
:1008E00032028F3F31F080913202803211F08091DC
:1008F00032021092FF011092FE011092DB01CF91A3
:1009000008950F931F93CF938C01C62F0E941D044F
:100910006C2F6460C8010E941D046C2F6B7FC8019E
:100920000E941D0482EC90E00197F1F7CF911F9196
:100930000F9108951F920F920FB60F9211242F93CB
:100940003F934F935F936F937F938F939F93AF9357
:10095000BF93EF93FF938091000287FF05C0109231
:100960008500109284001BC020910002022E000C12
:10097000330B8091010290E02817390784F48091AD
:100980000002082E000C990BFC01EE0FFF1F8E0FCA
:100990009F1FFC01EE5FFD4F808186FD15C0809199
:1009A00000028F5F8093000220910002022E000C53
:1009B000330B8091010290E028173907C4F480912D
:1009C00000028C3064F113C080910002082E000CEC
:1009D000990BFC01EE0FFF1F8E0F9F1FFC01EE5FB6
:1009E000FD4F808160E08F730E94A507D8CF809172
:1009F000840090918500049680349C4918F480E42A
:100A00009CE905C0809184009091850004969093A4
:100A10008900809388008FEF809300023BC0209173
:100A200084003091850080910002082E000C990B03
:100A3000FC01EE0FFF1F8E0F9F1FFC01EE5FFD4FAD
:100A400081819281820F931F909389008093880007
:100A500080910002082E000C990BFC01EE0FFF1F85
:100A60008E0F9F1FFC01EE5FFD4F808186FF12C03D
:100A700080910002082E000C990BFC01EE0FFF1F65
:100A80008E0F9F1FFC01EE5FFD4F808161E08F7331
:100A90000E94A507FF91EF91BF91AF919F918F9118
:100AA0007F916F915F914F913F912F910F900FBE6A
:100AB0000F901F9018950F931F93CF93DF938C0186
:100AC000C62FD42F607F642B0E94810480E1C89FD1
:100AD000B00111246D2BC801DF91CF911F910F91AF
:100AE0000C94810441E00E945B0581E090E0089550
:100AF0001F920F920FB60F9211242F933F938F9353
:100B00009F93EF93FF932091A5023091A6028091CD
:100B1000A7029091A8022817390731F48091C100EB
:100B20008F7D8093C10014C0E091A702F091A802CC
:100B3000EB59FD4F20818091A7029091A802019668
:100B40008F7399279093A8028093A7022093C600E1
:100B5000FF91EF919F918F913F912F910F900FBE39
:100B60000F901F9018951F920F920FB60F9211249D
:100B70002F934F935F938F939F93EF93FF93809166
:100B8000C00082FD1CC02091C6008091E9029091B6
:100B9000EA024091EB025091EC0201968F73992783
:100BA0004817590771F0E091E902F091EA02E75520
:100BB000FD4F20839093EA028093E90202C0809166
:100BC000C600FF91EF919F918F915F914F912F916F
:100BD0000F900FBE0F901F90189585ED8093BC006D
:100BE0008091BC0084FDFCCF1092330208950895DB
:100BF000CF93DF93CDB7DEB728970FB6F894DEBF5B
:100C00000FBECDBF98E0E6E0F1E0DE011196019065
:100C10000D929A95E1F790919D03981710F48FEF3C
:100C2000890FFE013196E80FF11DE80FF11D60817B
:100C3000606840E085E993E028960FB6F894DEBF3F
:100C40000FBECDBFDF91CF910C945B051F920F9229
:100C50000FB60F9211242F933F934F935F936F938F
:100C60007F938F939F93AF93BF93EF93FF93809165
:100C7000B900887F803609F49CC068F5883209F491
:100C80005BC090F4803109F454C038F4882309F42F
:100C9000F6C0883009F44DC0F6C0883109F44CC064
:100CA000803209F45DC0EFC0803409F468C048F4B4
:100CB000803309F455C0883309F0E5C080933202CF
:100CC000D8C0803509F44FC0883509F45DC0883438
:100CD00009F0D9C0D6C0883909F4C7C0A8F488374C
:100CE00009F467C038F4883609F463C0803709F422
:100CF00060C0C9C0883809F4B8C0803909F45FC041
:100D0000803809F0C0C05BC0803B09F486C038F46D
:100D1000803A09F466C0883A09F47FC0B4C0803CC8
:100D200009F4A7C0883C09F4A4C0883B09F48AC030
:100D3000AAC08091580210C090915702809156022B
:100D4000981770F5E091570281E08E0F809357025B
:100D5000F0E0EA5CFD4F80818093BB0085EC86C0AB
:100D6000809332028EC0E091570281E08E0F809313
:100D700057028091BB00F0E0EA5CFD4F80839091C8
:100D80005702809156026EC0E091570281E08E0FAB
:100D9000809357028091BB00F0E0EA5CFD4F8083B6
:100DA0008091350281116DC081E08093340284EA24
:100DB00061C083E0809333021092F903CFCF80911A
:100DC000F903803208F051C0E091F90381E08E0F01
:100DD0008093F9038091BB00F0E0E752FC4F8083E1
:100DE000BDCF85EC8093BC00109233028091F90353
:100DF000803230F4E091F903F0E0E752FC4F1082CA
:100E00006091F90370E0E0913002F091310289EDD8
:100E100093E009951092F90336C084E08093330281
:100E20001092D8031092D703E0912E02F0912F0276
:100E300009958091D703811105C081E08093D70384
:100E40001092B703E091D80381E08E0F8093D8030E
:100E5000F0E0E954FC4F80818093BB009091D8036F
:100E60008091D703981708F479CF85E88093BC0068
:100E70000AC085EC8093BC001092330204C010922B
:100E800032020E94ED05FF91EF91BF91AF919F91CA
:100E90008F917F916F915F914F913F912F910F9023
:100EA0000FBE0F901F9018954091D703262F30E06A
:100EB000240F311D21323105DCF42091330224301E
:100EC000C9F4FC0180E090E0861758F43091D70314
:100ED0002191DC01A954BC4FA30FB11D2C930196A5
:100EE000F3CF8091D703680F6093D70380E0089514
:100EF00081E0089582E00895833081F028F4813004
:100F000099F08230A1F008958630A9F08730B9F0C9
:100F10008430D1F4809180008F7D03C08091800067
:100F20008F7780938000089584B58F7702C084B551
:100F30008F7D84BD08958091B0008F7703C080912C
:100F4000B0008F7D8093B00008951F93CF93DF93FF
:100F5000282F30E0F901EA58FE4F8491F901E65755
:100F6000FE4FD491F901E855FE4FC491CC23C1F056
:100F7000162F81110E947C07EC2FF0E0EE0FFF1F6F
:100F8000E256FE4FA591B4919FB7F894111104C099
:100F90008C91D095D82302C0EC91DE2BDC939FBFBF
:100FA000DF91CF911F910895CF93DF9390E0FC01E3
:100FB000E657FE4F2491FC01E855FE4F84918823AB
:100FC00061F190E0880F991FFC01E459FE4FC59133
:100FD000D491FC01E256FE4FA591B491611109C074
:100FE0009FB7F8948881209582238883EC912E23E3
:100FF0000BC0623061F49FB7F8948881322F30952E
:1010000083238883EC912E2B2C939FBF06C08FB730
:10101000F894E8812E2B28838FBFDF91CF9108951C
:101020003FB7F8948091B3039091B403A091B503B6
:10103000B091B60326B5A89B05C02F3F19F00196C5
:10104000A11DB11D3FBFBA2FA92F982F8827820F4E
:10105000911DA11DB11DBC01CD0142E0660F771F9E
:10106000881F991F4A95D1F70895CF92DF92EF928A
:10107000FF92CF93DF936B017C010E941008EB017C
:10108000C114D104E104F10479F00E9410086C1B32
:101090007D0B683E7340A0F381E0C81AD108E108D7
:1010A000F108C851DC4FECCFDF91CF91FF90EF906A
:1010B000DF90CF9008951F920F920FB60F921124D8
:1010C0002F933F938F939F93AF93BF938091AF03E1
:1010D0009091B003A091B103B091B2033091AE03EF
:1010E00023E0230F2D3720F40196A11DB11D05C06B
:1010F00026E8230F0296A11DB11D2093AE03809315
:10110000AF039093B003A093B103B093B203809167
:10111000B3039091B403A091B503B091B6030196C7
:10112000A11DB11D8093B3039093B403A093B503A5
:10113000B093B603BF91AF919F918F913F912F9143
:101140000F900FBE0F901F901895FC019091010217
:101150009C30A0F481E0890F809301029083892F55
:1011600090E0FC01EE0FFF1F8E0F9F1FFC01EE5F52
:10117000FD4F88EB9BE09283818308958FEF8083FE
:101180000895CF93DF93CDB7DEB729970FB6F894C4
:10119000DEBF0FBECDBF789484B5826084BD84B5B8
:1011A000816084BD85B5826085BD85B5816085BD62
:1011B00080916E00816080936E001092810080911A
:1011C00081008260809381008091810081608093A2
:1011D0008100809180008160809380008091B100C7
:1011E00084608093B1008091B00081608093B000F2
:1011F00080917A00846080937A0080917A00826086
:1012000080937A0080917A00816080937A00809147
:101210007A00806880937A001092C100E091010307
:10122000F09102031082E091FD02F091FE02108223
:10123000E091FF02F091000380E1808310920E03A1
:10124000E0910303F0910403408181E090E09C0170
:101250000090090302C0220F331F0A94E2F7242BE7
:101260002083E0910303F091040340819C010090EE
:101270000A0302C0220F331F0A94E2F7242B2083B3
:10128000E0910303F091040340819C0100900B0363
:1012900002C0220F331F0A94E2F7242B2083E0912F
:1012A0000303F0910403208100900C0302C0880F17
:1012B000991F0A94E2F78095822380831092FD01A2
:1012C0001092FC011092FF011092FE011092330265
:1012D00081E0809335021092340261E082E10E9445
:1012E000A50761E083E10E94A5078091B9008E7F88
:1012F0008093B9008091B9008D7F8093B90088E414
:101300008093B80085E48093BC008DE891E09093D1
:101310002F0280932E028EE891E090933102809309
:10132000300210929A038091A003823018F098E066
:1013300090939A0380939D0362E370E080E090E0D5
:101340000E9435086091A10385E993E00E941D0485
:1013500068EE73E080E090E00E94350860E385E984
:1013600093E00E9481040AE416E4C8010197F1F7B2
:1013700060E385E993E00E948104C8010197F1F7D9
:1013800060E385E993E00E94810482E592E00197A1
:10139000F1F760E285E993E00E94810460919A038D
:1013A000606240E085E993E00E945B0584E0809301
:1013B0009B0340E06CE085E993E00E945B0540E020
:1013C00061E085E993E00E945B058AE39FE1019774
:1013D000F1F780919E03882319F080E00E94F805C0
:1013E00082E080939C0340E066E085E993E00E9400
:1013F0005B0540E062E085E993E00E945B058AE3DB
:101400009FE10197F1F788E08093A10360E085E90F
:1014100093E00E941D0440E150E066E371E085E93D
:1014200093E00E94580269E070E08BEA93E00E942A
:1014300065036AE070E088EA93E00E9465036BE070
:1014400070E085EA93E00E9465036CE070E082EA58
:1014500093E00E9465036AE570E08BEA93E00E94E6
:101460000A016CE570E088EA93E00E940A016AE5EF
:1014700070E085EA93E00E940A0164E170E082EA8C
:1014800093E00E940A01809185039091860397FD65
:1014900008C061E00E94D40760E0809185030E944B
:1014A000A50781E08093800360E070E0E0E0F0E079
:1014B00040E050E0809181039091820348175907E2
:1014C00070F5809187032FEF882321F0829FC00160
:1014D0001124292F30918D03A0918A0380918803D4
:1014E000909189033A1303C08E0F9F1F06C0860F89
:1014F000971FDC01A30FB11D1C9230918A03DC0100
:10150000A30FB11D2C9330918B03DC01A30FB11DF0
:101510001C9230918C03DC01A30FB11D2C934F5F03
:101520005F4F33966C5F7F4F4C30510519F66091D9
:1015300087036B3021F1209188033091890361503A
:1015400031F070E08FEF9AE00E94051802C060E071
:1015500070E0F9014091830350918403CF01821B15
:10156000930B8417950740F44081469FC001479F25
:10157000900D11249193EECF8BE08093870380919F
:10158000880390918903892B09F4A2C00E94100856
:1015900000918E0310918F0320919003309191035D
:1015A000DC01CB01801B910BA20BB30B8C32914061
:1015B000A105B10558F3F8948091830390918403B9
:1015C0009A838983E0918803F0918903DF01119662
:1015D0008081898790917F03E0919203F09193033A
:1015E00080919403992309F42EC09081982B9887B9
:1015F0009081809589238F838F818C8388E08B8372
:1016000058856F8149853B812C8189819A815083DE
:1016100047FD252F3A952083262F39F0441F00C01F
:1016200000006083000000C0F2CF38E04D9160837D
:101630000000019761F7F0939303E09392034987C9
:101640003B832C8338C09081982B9887908180951C
:1016500089238F838F818E8388E08D8358856F8166
:1016600049853D812E8189819A81508347FD252FAF
:1016700000C000C0208300C000C000C000C000C087
:1016800060830000262F3A9541F0441F000000C0FF
:1016900000C000C000C000C0E8CF38E04D9100C0DD
:1016A000608300C0019709F7F0939303E0939203DE
:1016B00049873D832E839A83898378940E941008FA
:1016C00060938E0370938F038093900390939103A4
:1016D000BB24B39483E1A82E9BE4C92E91E0D92EBC
:1016E0002DE5E22E21E0F22E8DEE92E00E944402E2
:1016F00018161906F4F48DEE92E00E940802E091AB
:101700005C018A3271F0AE2FB0E0AF56BE4F8C93C1
:10171000EF5FE43118F4E0935C010BC0A0925C0130
:1017200008C0F0E0EF56FE4F108210925C01B092BC
:10173000B9018091B901813009F0F1C061E971E02E
:1017400085EA91E00E94371367E471E085EA91E051
:101750000E94160F0E94F50E9093900180938F01C6
:1017600067E471E080E090E00E94160F0E94F50EA1
:1017700090938E0180938D0167E471E080E090E0AA
:101780000E94160F0E94F50E90938C0180938B019E
:1017900069E471E080E090E00E94160F0E94F50E6F
:1017A0008C0190938A01809389018FE193E00E94DC
:1017B00080029B01AC0160911B0370911C0380911E
:1017C0001D0390911E030E94FB14609313037093FA
:1017D0001403809315039093160383E493E00E940F
:1017E00080029B01AC0160911B0370911C038091EE
:1017F0001D0390911E030E94FB14609317037093C6
:1018000018038093190390931A038FE193E00E94C9
:1018100080022B013C0183E493E00E9480029B0143
:10182000AC01C301B2010E94611320E030E040E04E
:101830005FE30E94FB1420911B0330911C03409135
:101840001D0350911E030E94FB1426E636E646E671
:1018500050E40E94FB142B013C0160930F03709332
:10186000100380931103909312036093850170938A
:101870008601809387019093880160918F01709118
:1018800090018BEA93E00E940A0160918D017091B2
:101890008E0188EA93E00E940A0160918B017091A9
:1018A0008C0185EA93E00E940A01B80182EA93E084
:1018B0000E940A0101E711E022E044E0C301B20105
:1018C0000E94D50E81E00E94F80580918E018F93D1
:1018D00080918D018F93809190018F9380918F01E2
:1018E0008F93C8019F930F93DF92CF92FF92EF9255
:1018F0000E943E13F70101900020E9F73197AF01F4
:101900004D5551406DE571E085E993E00E94580224
:101910001092B9010FB6F894DEBF0FBECDBF0E9482
:101920005402E2CE80918803909189030E94AE1206
:10193000809185039091860397FD03C060E00C942D
:10194000D40708954F925F926F927F928F929F92E9
:10195000AF92BF92CF92DF92EF92FF92CF93DF933D
:1019600010925C0210925B0288EE93E0A0E0B0E07F
:1019700080935D0290935E02A0935F02B093600239
:1019800022E131E030935A02209359021092F00282
:101990001092EF028093F1029093F202A093F3026F
:1019A000B093F40282E291E09093EE028093ED0214
:1019B00089EA92E09093FA028093F90285E692E038
:1019C0009093FC028093FB0285EC90E09093FE02E2
:1019D0008093FD0284EC90E0909300038093FF02DB
:1019E00080EC90E0909302038093010381EC90E0FF
:1019F000909304038093030382EC90E0909306039A
:101A00008093050386EC90E090930803809307038E
:101A1000D4E0D093090383E080930A0387E08093A6
:101A20000B0385E080930C03C1E0C0930D038BEAA8
:101A300093E00E94A50888EA93E00E94A50885EA41
:101A400093E00E94A50882EA93E00E94A508109204
:101A500098031092970382E391E09093960380930A
:101A6000950310929E0387E28093990384E180930B
:101A70009F03D093A0031092A103109280031092B1
:101A8000870310928E0310928F031092900310928E
:101A9000910310928D0310928A03C0938B0382E00E
:101AA00080938C03C0937F0384E290E0909384033F
:101AB000809383030E941612909389038093880376
:101AC000009761F024E2FC0111922A95E9F78CE07D
:101AD00090E0909382038093810308C01092840366
:101AE00010928303109282031092810387E090E0AA
:101AF000909386038093850380918003882341F02F
:101B000061E087E00E94D40760E087E00E94A507BB
:101B1000EFEAF1E0E491F0E0EE0FFF1FE256FE4F36
:101B2000859194919093930380939203E1E9F1E07E
:101B3000E491E0939403C8E0D0E0D0932003C093F5
:101B40001F03D0932203C09321039CED492E9FE0F5
:101B5000592E99E4692E90E4792E409233035092E5
:101B60003403609235037092360360E088E00E948F
:101B7000D4076091330370913403809135039091C1
:101B800036039B01AC010E9461136B017C016091E3
:101B9000210370912203072E000C880B990B0E94E1
:101BA00046149B01AC01C701B6010E94D213609399
:101BB0003B0370933C0380933D0390933E0310924C
:101BC000240310922303812C912C20E8A22E2FE3D2
:101BD000B22E8092250390922603A0922703B09202
:101BE00028031092290310922B0310922C031092B9
:101BF0002D0310922E0310922F0310923003109297
:101C0000310310923203109237031092380310926E
:101C1000390310923A03C12CD12C30E8E32E3FEB6C
:101C2000F32EC0923F03D0924003E0924103F09222
:101C300042038DE090E09093440380934303D0935C
:101C40004603C09345034092570350925803609255
:101C5000590370925A0360E00E94D40760915703C1
:101C6000709158038091590390915A039B01AC01E4
:101C70000E9461132B013C01609145037091460362
:101C8000072E000C880B990B0E9446149B01AC0197
:101C9000C301B2010E94D21360935F03709360038B
:101CA000809361039093620310924803109247035C
:101CB0008092490390924A03A0924B03B0924C0346
:101CC00010924D0310924F03109250031092510343
:101CD0001092520310925303109254031092550322
:101CE0001092560310925B0310925C0310925D03F6
:101CF00010925E03C0926303D0926403E092650386
:101D0000F092660310920F031092100310921103C9
:101D10001092120381E398E0ACE2BDE380931B03D1
:101D200090931C03A0931D03B0931E0310926F03A6
:101D30001092700310927103109272031092670355
:101D4000109268031092690310926A0310926B0359
:101D500010926C0310926D0310926E031092730335
:101D60001092740310927503109276031092770309
:101D7000109278031092790310927A03C0927B0339
:101D8000D0927C03E0927D03F0927E03DF91CF91AD
:101D9000FF90EF90DF90CF90BF90AF909F908F908B
:101DA0007F906F905F904F900895EF920F931F93E5
:101DB000CF93DF93E80147FD02C034E001C034E176
:101DC000042E000C550B57FF03C051954195510946
:101DD000E32E022F242FAE010E944A0FCE01DF9185
:101DE000CF911F910F91EF900895FC0188279927BB
:101DF000E89421912032E9F3293010F02E30C8F315
:101E00002B3241F02D3239F4689404C00E94420F05
:101E1000820F911D219120532A30C0F31EF490951A
:101E200081959F4F0895F8940C941F184AEF53E042
:101E30000E941B0F0895FA01A191B081009719F437
:101E40001097E1F0CD01DC01CD010D90002011F4DF
:101E5000C00113C0FB012191222319F02015D9F7ED
:101E6000F3CFFB012191201519F41E92119606C0A3
:101E70002223C1F70D900020A1F7D001FA01A19310
:101E8000B08308957AE0979F902D879F802D910DC4
:101E900011240895A9E0B0E0E0E5FFE00C94B4114E
:101EA0006A01122FB02E2BE3201720F0FF24F394A9
:101EB000F00E02C02CE3F22E0F2D27E0AE014F5F93
:101EC0005F4F0E94A410BC014981842F897081302A
:101ED00031F0E1FC06C0E0FE06C090E205C09DE2E4
:101EE00003C09BE201C090E05E2D507143FF3CC0F7
:101EF000911102C083E001C084E0811718F4212F02
:101F0000281B01C020E051110BC0F601822F30E2E6
:101F1000882319F031938150FBCFC20ED11C20E0F1
:101F2000992329F0D6019C93F60131966F01C601E1
:101F30000396E2FE0AC03EE4D6013C9341E41196CA
:101F40004C93119712963C9306C03EE6F6013083FF
:101F500041E641833283FC01322F40E2332309F40E
:101F600042C041933150FACF42FF44C0911102C0A8
:101F700083E001C084E0811718F4212F281B01C0E1
:101F800020E051110BC0F601822F30E2882319F0B6
:101F900031938150FBCFC20ED11C20E0992329F050
:101FA000D6019C93F60131966F01C6010396E2FEBD
:101FB0000BC039E4D6013C933EE411963C93119753
:101FC00036E412963C9307C039E6F60130833EE6CC
:101FD000318336E63283FC01322F40E2332319F09D
:101FE00041933150FBCFFC01E20FF11D10828EEFC7
:101FF0009FEFA6C021E030E0911102C020E030E068
:10200000161617061CF4FB01319602C0E1E0F0E061
:102010002E0F3F1FBB2021F0EB2DF0E0319602C0C8
:10202000E0E0F0E02E0F3F1FE12FF0E02E173F071A
:102030001CF4121B212F01C020E08E2D887159F451
:10204000F601822F30E2882319F031938150FBCFC3
:10205000C20ED11C20E0992329F0D6019C93F601F1
:1020600031966F0151110BC0F601822F90E3882346
:1020700019F091938150FBCFC20ED11C20E00F2D9F
:10208000060F9A81342F307144FF03C0913309F455
:102090000150101624F4093018F008E001C001E0E6
:1020A000AB0177FF02C040E050E0FB01E41BF50B01
:1020B000A1E0B0E0AC0FBD1FEA0FFB1F8EE2A82E1F
:1020C0004B01801A91080B2D10E011950195110913
:1020D0004F3FBFEF5B0721F4D601AC9211966D0123
:1020E000641775072CF08416950614F4818101C0DD
:1020F00080E3415051093196D60111967D01401778
:10210000510724F0D6018C936701E2CF641775075D
:1021100039F4963320F4953319F4311101C081E379
:10212000F6018083F701822F90E2882319F09193C2
:102130008150FBCFF701E20FF11D108280E090E0AB
:102140002996ECE00C94D011283008F027E03327D2
:10215000DA01990F311D87FD9160009661057105C7
:1021600039F432602E5F3D9330E32A95E1F708950C
:102170009F3F30F080387105610509F03C5F3C5F9E
:102180003D93913008F08068911DDF93CF931F93AA
:102190000F93FF92EF92192F987F9695E92F9695BE
:1021A0009695E90FFF27EE53FF4F99273327EE242B
:1021B000FF24A701E70105900894079428F4360F3F
:1021C000E71EF81E491F511D660F771F881F991FB4
:1021D0000694A1F70590079428F4E70EF81E491F0E
:1021E000561FC11D770F881F991F661F0694A1F700
:1021F0000590079428F4F80E491F561FC71FD11DDC
:10220000880F991F661F771F0694A1F70590079402
:1022100020F4490F561FC71FD81F990F661F771F3D
:10222000881F0694A9F784911095177041F0D695F0
:10223000C79557954795F794E7941A95C1F7E8E63F
:10224000F0E0689415901591359165919591059000
:102250007FE27395E118F10A430B560BC90BD009C5
:10226000C0F7E10CF11E431F561FC91FD01D7EF49D
:10227000703311F48A95E6CFE894015030F0080FDE
:102280000AF40027021708F4202F2395022F7A332F
:1022900028F079E37D932A95E9F710C07D932A957C
:1022A00089F6069497956795379517951794E118D1
:1022B000F10A430B560BC90BD00998F023957E9178
:1022C00073957A3308F070E37C932013B8F77E910E
:1022D00070617D9330F0839571E37D9370E32A956F
:1022E000E1F71124EF90FF900F911F91CF91DF91B3
:1022F000992787FD90950895052E97FB1EF400946D
:102300000E94931157FD07D00E94E51107FC03D0EE
:102310004EF40C94931150954095309521953F4F74
:102320004F4F5F4F089590958095709561957F4FC1
:102330008F4F9F4F08950E940712A59F900DB49F45
:10234000900DA49F800D911D11240895B7FF0C944A
:102350009B110E949B11821B930B08952F923F9219
:102360004F925F926F927F928F929F92AF92BF92A5
:10237000CF92DF92EF92FF920F931F93CF93DF9351
:10238000CDB7DEB7CA1BDB0B0FB6F894DEBF0FBEAE
:10239000CDBF09942A88398848885F846E847D84FB
:1023A0008C849B84AA84B984C884DF80EE80FD80FD
:1023B0000C811B81AA81B981CE0FD11D0FB6F89473
:1023C000DEBF0FBECDBFED010895A1E21A2EAA1BFC
:1023D000BB1BFD010DC0AA1FBB1FEE1FFF1FA217D5
:1023E000B307E407F50720F0A21BB30BE40BF50BD2
:1023F000661F771F881F991F1A9469F7609570955B
:10240000809590959B01AC01BD01CF010895A29FDD
:10241000B001B39FC001A39F700D811D1124911DB8
:10242000B29F700D811D1124911D08950F931F936C
:10243000CF93DF938230910510F482E090E0E09139
:10244000FE03F091FF0320E030E0A0E0B0E0309721
:1024500019F1408151810281138148175907C8F051
:102460008417950769F4109731F012960C93129720
:1024700013961C9327C00093FE031093FF0322C002
:102480002115310519F04217530718F49A01BD01BF
:10249000EF01DF01F801DBCF21153105F9F0281B31
:1024A000390B2430310580F48A819B8161157105D7
:1024B00021F0FB019383828304C09093FF038093F8
:1024C000FE03FE01329644C0FE01E20FF31F81932A
:1024D000919322503109398328833AC02091FC031B
:1024E0003091FD03232B41F420910201309103012F
:1024F0003093FD032093FC032091000130910101F2
:102500002115310541F42DB73EB74091040150919A
:102510000501241B350BE091FC03F091FD03E2174C
:10252000F307A0F42E1B3F0B2817390778F0AC01F6
:102530004E5F5F4F2417350748F04E0F5F1F5093D3
:10254000FD034093FC038193919302C0E0E0F0E02F
:10255000CF01DF91CF911F910F910895CF93DF931A
:10256000009709F481C0FC01329713821282A09176
:10257000FE03B091FF03109781F420813181820F17
:10258000931F2091FC033091FD032817390751F563
:10259000F093FD03E093FC0367C0ED0120E030E021
:1025A000CE17DF0740F44A815B819E01411551053A
:1025B000F1F0EA01F5CFD383C28340815181840FCA
:1025C000951FC817D90759F488819981840F951FE1
:1025D0000296918380838A819B81938382832115D4
:1025E000310529F4F093FF03E093FE033DC0E901B8
:1025F000FB83EA8349915991C40FD51FEC17FD075E
:1026000061F480819181840F951F0296E90199837D
:102610008883828193819B838A83E0E0F0E0129635
:102620008D919C911397009719F0FD01DC01F7CF74
:102630008D919C9111979D012E5F3F4F820F931FAB
:102640002091FC033091FD032817390769F4309776
:1026500029F41092FF031092FE0302C0138212822B
:10266000B093FD03A093FC03DF91CF910895FB018C
:10267000DC0101900D920020E1F70895AEE0B0E09A
:10268000E4E4F3E10C94BC110D891E8986E08C838F
:102690001A8309838FEF9FE79E838D83AE01475E88
:1026A0005F4F6F89788DCE0101960E946815EF818A
:1026B000F885E00FF11F10822E96E4E00C94D811FB
:1026C0005058BB27AA270E9478130C94BC140E9470
:1026D000AE1438F00E94B51420F039F49F3F19F47D
:1026E00026F40C94AB140EF4E095E7FB0C94A514BF
:1026F000E92F0E94CD1458F3BA17620773078407B5
:10270000950720F079F4A6F50C94EF140EF4E095FB
:102710000B2EBA2FA02D0B01B90190010C01CA019B
:10272000A0011124FF27591B99F0593F50F4503E46
:1027300068F11A16F040A22F232F342F4427585F38
:10274000F3CF469537952795A795F0405395C9F750
:102750007EF41F16BA0B620B730B840BBAF0915008
:10276000A1F0FF0FBB1F661F771F881FC2F70EC0A7
:10277000BA0F621F731F841F48F48795779567957A
:10278000B795F7959E3F08F0B0CF9395880F08F066
:102790009927EE0F9795879508950E94811408F464
:1027A00081E008950E94E6130C94BC140E94B514B5
:1027B00058F00E94AE1440F029F45F3F29F00C94C9
:1027C000A51451110C94F0140C94AB140E94CD1468
:1027D00068F39923B1F3552391F3951B550BBB2750
:1027E000AA2762177307840738F09F5F5F4F220F95
:1027F000331F441FAA1FA9F335D00E2E3AF0E0E88C
:1028000032D091505040E695001CCAF72BD0FE2FD5
:1028100029D0660F771F881FBB1F26173707480769
:10282000AB07B0E809F0BB0B802DBF01FF27935821
:102830005F4F3AF09E3F510578F00C94A5140C942C
:10284000F0145F3FE4F3983ED4F38695779567954F
:10285000B795F7959F5FC9F7880F911D9695879556
:1028600097F90895E1E0660F771F881FBB1F621775
:1028700073078407BA0720F0621B730B840BBA0B33
:10288000EE1F88F7E0950895E89409C097FB3EF4A1
:1028900090958095709561957F4F8F4F9F4F9923AD
:1028A000A9F0F92F96E9BB279395F695879577952B
:1028B0006795B795F111F8CFFAF4BB0F11F460FFEB
:1028C0001BC06F5F7F4F8F4F9F4F16C0882311F043
:1028D00096E911C0772321F09EE8872F762F05C057
:1028E000662371F096E8862F70E060E02AF09A95F2
:1028F000660F771F881FDAF7880F9695879597F9E7
:102900000895990F0008550FAA0BE0E8FEEF161680
:102910001706E807F907C0F012161306E407F507D3
:1029200098F0621B730B840B950B39F40A2661F047
:10293000232B242B252B21F408950A2609F4A140EA
:10294000A6958FEF811D811D089597F99F6780E8F7
:1029500070E060E008959FEF80EC089500240A94F1
:102960001616170618060906089500240A9412166A
:102970001306140605060895092E0394000C11F49D
:10298000882352F0BB0F40F4BF2B11F460FF04C04A
:102990006F5F7F4F8F4F9F4F089557FD9058440FA3
:1029A000551F59F05F3F71F04795880F97FB991FAE
:1029B00061F09F3F79F0879508951216130614066B
:1029C000551FF2CF4695F1DF08C0161617061806F8
:1029D000991FF1CF86957105610508940895E894D3
:1029E000BB2766277727CB0197F908950E948114AA
:1029F00008F48FEF08950E940E150C94BC140E94E9
:102A0000AE1438F00E94B51420F0952311F00C9408
:102A1000A5140C94AB1411240C94F0140E94CD1442
:102A200070F3959FC1F3950F50E0551F629FF00121
:102A3000729FBB27F00DB11D639FAA27F00DB11D3A
:102A4000AA1F649F6627B00DA11D661F829F2227C3
:102A5000B00DA11D621F739FB00DA11D621F839F4A
:102A6000A00D611D221F749F3327A00D611D231F20
:102A7000849F600D211D822F762F6A2F11249F576E
:102A800050409AF0F1F088234AF0EE0FFF1FBB1F71
:102A9000661F771F881F91505040A9F79E3F510530
:102AA00080F00C94A5140C94F0145F3FE4F3983E6E
:102AB000D4F3869577956795B795F795E7959F5FDA
:102AC000C1F7FE2B880F911D9695879597F908956C
:102AD000ABE0B0E0EEE6F5E10C94AE116C017B01E9
:102AE0008A01FC0117821682838181FFCCC1CE014D
:102AF00001963C01F6019381F70193FD859193FFC7
:102B000081917F01882309F4BAC1853239F493FD9C
:102B1000859193FF81917F01853229F4B60190E080
:102B20000E945F17E7CF912C212C312CFFE1F31588
:102B3000D8F08B3279F038F4803279F08332A1F416
:102B4000232D20611DC08D3261F0803369F4232D67
:102B5000216016C0832D8260382EE32DE4603E2E66
:102B60002AC0F32DF8601DC037FC2DC020ED280FC2
:102B70002A3040F08E32B9F436FC81C1232D206416
:102B8000322E19C036FE06C08AE0989E200D112410
:102B9000922E11C0EAE02E9E200D1124222EF32D3C
:102BA000F0623F2E08C08C3621F4832D8068382EC9
:102BB00002C0883641F4F70193FD859193FF81911E
:102BC0007F018111B3CF982F9F7D9554933028F4C6
:102BD0000C5F1F4F9FE399830DC0833631F083371D
:102BE00071F0833509F059C021C0F80180818983D3
:102BF0000E5F1F4F88248394912C530113C028012A
:102C0000F2E04F0E511CF801A080B18036FE03C0E7
:102C1000692D70E002C06FEF7FEFC5010E9454176D
:102C20004C018201F32DFF773F2E16C0280122E0D0
:102C3000420E511CF801A080B18036FE03C0692D00
:102C400070E002C06FEF7FEFC5010E9449174C0191
:102C5000F32DF0683F2E820133FC1BC0822D90E0E3
:102C600088169906B0F4B60180E290E00E945F17E2
:102C70002A94F4CFF50137FC859137FE81915F01ED
:102C8000B60190E00E945F1721102A9421E0821A79
:102C900091088114910471F7E8C0843611F08936E7
:102CA00041F5F80137FE07C060817181828193810F
:102CB0000C5F1F4F08C060817181072E000C880BCC
:102CC000990B0E5F1F4FF32DFF763F2E97FF09C024
:102CD00090958095709561957F4F8F4F9F4FF068CD
:102CE0003F2E2AE030E0A3010E949B17882E861811
:102CF00045C0853731F4232D2F7EB22E2AE030E0F7
:102D000025C0932D997FB92E8F36C1F018F48835E0
:102D100079F0B5C0803719F0883721F0B0C0E92FBD
:102D2000E061BE2EB4FE0DC0FB2DF460BF2E09C0C5
:102D300034FE0AC0292F2660B22E06C028E030E0FB
:102D400005C020E130E002C020E132E0F801B7FE2A
:102D500007C060817181828193810C5F1F4F06C023
:102D60006081718180E090E00E5F1F4FA3010E949F
:102D70009B17882E8618FB2DFF773F2E36FE0DC041
:102D8000232D2E7FA22E891458F434FE0BC032FC62
:102D900009C0832D8E7EA82E05C0B82CA32C03C09D
:102DA000B82C01C0B92CA4FE0FC0FE01E80DF11D26
:102DB0008081803321F49A2D997EA92E09C0A2FE2C
:102DC00006C0B394B39404C08A2D867809F0B394F6
:102DD000A3FC11C0A0FE06C0B21488F4280C922CEB
:102DE0009B180EC0B21460F4B60180E290E00E941D
:102DF0005F17B394F7CFB21418F42B1802C0982CB5
:102E0000212CA4FE10C0B60180E390E00E945F1761
:102E1000A2FE17C0A1FC03C088E790E002C088E5CD
:102E200090E0B6010CC08A2D867859F0A1FE02C050
:102E30008BE201C080E2A7FC8DE2B60190E00E9427
:102E40005F17891438F4B60180E390E00E945F17A1
:102E50009A94F7CF8A94F301E80DF11D8081B601B1
:102E600090E00E945F178110F5CF222009F442CE36
:102E7000B60180E290E00E945F172A94F6CFF60137
:102E80008681978102C08FEF9FEF2B96E2E10C9431
:102E9000CA11FC010590615070400110D8F780956F
:102EA00090958E0F9F1F0895FC0161507040019016
:102EB0000110D8F7809590958E0F9F1F08950F935E
:102EC0001F93CF93DF93FB01238121FD03C08FEF7D
:102ED0009FEF2CC022FF16C0468157812481358187
:102EE0004217530744F4A081B1819D012F5F3F4FEA
:102EF000318320838C93268137812F5F3F4F378327
:102F0000268314C08B01EC01FB010084F185E02DC8
:102F10000995892BE1F6D80116968D919C9117970A
:102F2000019617969C938E931697CE01DF91CF91C1
:102F30001F910F910895FA01AA27283051F12031ED
:102F400081F1E8946F936E7F6E5F7F4F8F4F9F4F3D
:102F5000AF4FB1E03ED0B4E03CD0670F781F891F7F
:102F60009A1FA11D680F791F8A1F911DA11D6A0F4D
:102F7000711D811D911DA11D20D009F468943F9100
:102F80002AE0269F11243019305D3193DEF6CF01FF
:102F90000895462F4770405D4193B3E00FD0C9F7C5
:102FA000F6CF462F4F70405D4A3318F0495D31FD32
:102FB0004052419302D0A9F7EACFB4E0A695979585
:102FC000879577956795BA95C9F70097610571055B
:102FD00008959B01AC010A2E0694579547953795A5
:102FE0002795BA95C9F7620F731F841F951FA01DFF
:102FF0000895991B79E004C0991F961708F0961B55
:10300000881F7A95C9F780950895AA1BBB1B51E1CB
:1030100007C0AA1FBB1FA617B70710F0A61BB70B48
:10302000881F991F5A95A9F780959095BC01CD01ED
:103030000895EE0FFF1F0590F491E02D099410E024
:10304000CFEDD0E004C0FE010E9419182196C03EC9
:08305000D107C9F7F894FFCF86
:10305800000000042000000040001400540000009C
:103068000000EE03C103B3019F0190018F0100002E
:103078000000BB015802440208022802FD010000BA
:103088000000720558024D652C204A6574736F6EF6
:103098002E20596F753F002C002A00257320533AC3
:0C30A80025336420543A253364200000D6
:00000001FF
