:100000000C94E0000C9408010C9408010C94080175
:100010000C9408010C9408010C9408010C9408013C
:100020000C9408010C9408010C9408010C94E4044D
:100030000C9408010C9408010C9408010C9408011C
:100040000C949A040C9408010C94FD050C94C205C0
:100050000C9408010C9408010C9408010C940801FC
:100060000C9470060C94080100407A10F35A00A01A
:10007000724E18090010A5D4E80000E87648170071
:1000800000E40B54020000CA9A3B000000E1F505B1
:10009000000080969800000040420F000000A086FB
:1000A00001000000102700000000E803000000002D
:1000B0006400000000000A000000000001000000D1
:1000C00000002C76D888DC674F0823DFC1DFAE59EB
:1000D000E1B1B796E5E3E453C63AE651997696E87E
:1000E000E6C28426EB898C9B62ED407C6FFCEFBC02
:1000F0009C9F40F2BAA56FA5F490055A2AF75C932D
:100100006B6CF9676DC11BFCE0E40D47FEF520E662
:10011000B500D0ED902E0300943577050080841E45
:10012000080000204E0A000000C80C333333330FA0
:10013000986E12831141EF8D2114893BE65516CF3D
:10014000FEE6DB18D1844B381BF77C1D901DA4BB49
:10015000E424203284725E228100C9F124ECA1E5FE
:100160003D270000000023002600290000000000B9
:10017000240027002A0000000007000201000003FD
:100180000406000000000000000001020408102026
:100190004080010204081020010204081020000021
:1001A0000000250028002B000404040404040404B7
:1001B000020202020202030303030303F70EE70E27
:1001C00011241FBECFEFD8E0DEBFCDBF11E0A0E00D
:1001D000B1E0E8E8F6E302C005900D92AC35B10756
:1001E000D9F724E0ACE5B1E001C01D92A332B2071B
:1001F000E1F710E0CFEDD0E004C02197FE010E94AE
:10020000311BCE3DD107C9F70E94A5080C942B12D3
:100210000C940000CF92DF92EF92FF92CF93DF9386
:10022000EC01603282E078070CF03DC077FD06C03B
:10023000653B71052CF064EB70E002C060E070E09B
:10024000898128E830E06901C81AD10887FDD39474
:10025000CC0CDD1CCC0CDD1C0D2C000CEE08FF08BA
:100260008A8128E532E0281B310987FD3395220F6A
:10027000331F220F331FC901330FAA0BBB0B9C0185
:10028000AD012C193D094E095F09DB010E94BE1426
:1002900024EB30E040E050E00E949414C20ED31EE4
:1002A000E41EF51EB60138813C3080F5298188E8CE
:1002B00090E0821B910927FD9395880F991F880F65
:1002C000991F6817790784F08A8148E552E0481B36
:1002D000510987FD5395440F551F440F551FCB01FE
:1002E000461757070CF4CA014FB7F894232F30E094
:1002F000F901EE0FFF1F2E0F3F1FF901EC52FD4FCA
:100300000297880F991F928381834FBFDF91CF910E
:10031000FF90EF90DF90CF9008950895089508958D
:10032000E091DE018091DD01E81730F4F0E0E35464
:10033000FE4F808190E008958FEF9FEF0895909198
:10034000DE018091DD01981750F4E92FF0E0E354CD
:10035000FE4F208130E09F5F9093DE0102C02FEFBF
:100360003FEFC90108958091DD0190E02091DE0109
:10037000821B910908950F931F93CF93DF93FC0184
:10038000A685B7858D01005C1F4FE80188819981A2
:1003900001968F739927AD014E5B5F4FEA0128816B
:1003A000398128173907D1F3E80128813981A20F53
:1003B000B31F6C93A685B785A05CBF4F11969C9325
:1003C0008E93A689B7892C9181E090E0078C02C0BA
:1003D000880F991F0A94E2F7822B8C9381E081A306
:1003E0000488F589E02D80818064808381E090E03D
:1003F000DF91CF911F910F910895FC0181A1882376
:1004000029F0A489B5898C9186FFFBCF11A20895AC
:10041000FC01A485B585FD01E05CFF4F20813181A1
:100420003296808191812817390779F080819181F6
:10043000A80FB91F8C91208131812F5F3F4F2F73FF
:1004400033273183208390E008958FEF9FEF089545
:10045000DC011C96ED91FC911D97DF01A05CBF4F64
:100460002D913C91119712968D919C91119728177F
:10047000390739F08D919C91E80FF91F808190E048
:1004800008958FEF9FEF0895FC0124853585F901CC
:10049000E05CFF4F80819181329620813181821B07
:1004A000930B8F73992708958EEA92E00C9444027F
:1004B000CF92DF92EF92FF920F931F93CF93DF9330
:1004C0006C01EB017B01E40EF51E00E010E0CE159F
:1004D000DF0561F06991D601ED91FC910190F08109
:1004E000E02DC6010995080F191FF1CFC801DF9152
:1004F000CF911F910F91FF90EF90DF90CF900895D3
:100500004F925F926F927F928F929F92AF92BF9223
:10051000CF92DF92EF92FF920F931F93CF93DF93CF
:10052000EC01288139813327F901EA58FE4F849183
:10053000F901E657FE4F0491F901E855FE4F149179
:100540001123A1F081110E94C607E12FF0E0EE0F08
:10055000FF1FEE59FE4FA591B491EC91E02391E07D
:1005600080E009F490E0092F182F02C000E010E0AD
:100570001D830C830130110511F481E08B878B857D
:10058000882391F00115110579F420E030E040E86E
:100590005FE36E817F81888599850E94E5168111D0
:1005A00003C081E08A8701C01A86B801110F880B49
:1005B000990B0E945E176E837F83888799878A854F
:1005C0008823C1F10E945A080E945C176B017C01CC
:1005D000688B798B8A8B9B8B2C853D854E855F85BF
:1005E0000E9478164B015C0120E034E244E759E4B4
:1005F0000E94EA169B01AC0168A379A38AA39BA37E
:100600006C8D7D8D8E8D9F8D0E94EA16688F798FFF
:100610008A8F9B8F8092E6019092E701A092E80179
:10062000B092E901C092E201D092E301E092E401CC
:10063000F092E50188899989AA89BB898C879D8771
:10064000AE87BF870E945A084090E6015090E701AC
:100650006090E8017090E9018090E2019090E301E0
:10066000A090E401B090E5010E945C176B017C0151
:1006700020E030E040EC5FE3C301B2010E941318B8
:10068000A50194010E9479169B01AC01C701B60136
:100690000E940E18181624F4188E198E1A8E1B8EAE
:1006A000688D798D8A8D9B8DDF91CF911F910F91F0
:1006B000FF90EF90DF90CF90BF90AF909F908F9082
:1006C0007F906F905F904F9008951F93CF93DF932B
:1006D000EC01162F88818C3008F04EC061E0812F2C
:1006E0000E941E088881E82FF0E09F01220F331F2F
:1006F000E20FF31FEC52FD4F1F739081907C192B7A
:10070000108319821A826CE00E94111B9CE0899F61
:10071000B001112440E050E09B01240F351FF90186
:10072000EE0FFF1F2E0F3F1FF901EC52FD4F90817E
:1007300096FD16C04F5F5F4F4C30510569F7811130
:100740000FC01092800082E080938100109285009B
:1007500010928400B19A80916F00826080936F0044
:10076000E881F0E0CF01880F991FE80FF91FEC52E4
:10077000FD4F8081806480838881DF91CF911F91BC
:100780000895CF92DF92EF92FF920F931F93CF9332
:10079000DF937C01CB018A012091BC01222389F0E7
:1007A000EB016B01C40ED51ECC15DD0569F0699116
:1007B000D701ED91FC910190F081E02DC7010995E1
:1007C000F3CF642F0E949E07C801DF91CF911F9144
:1007D0000F91FF90EF90DF90CF900895CF93DF932C
:1007E0001F92CDB7DEB769832091BC012223D1F0DF
:1007F0002091DF01203240F021E030E0FC01338322
:10080000228380E090E015C08091E001E82FF0E0C5
:10081000E456FE4F998190838F5F8093E00180932F
:10082000DF0105C061E0CE0101960E949E0781E0D4
:1008300090E00F90DF91CF910895CF93FC01C48198
:1008400021E02093BC01C0939B011092E001109223
:10085000DF018485682B8AE192E00E94EE0390918B
:10086000DF01913208F045C08091F4018111FCCF85
:1008700082E08093F40181E08093F6018FEF809312
:10088000F3011092180290931702ACE9B1E0E7EF80
:10089000F1E080E0981721F02D9121938F5FFACF3E
:1008A0001092190280911902CC0FC82BC093190223
:1008B0008091F501813061F41092F5018091190267
:1008C0008093BB008091BC0083FDF8CF85EC01C014
:1008D00085EE8093BC008091F4018230E1F3809139
:1008E000F3018F3F31F08091F301803211F080915C
:1008F000F3011092E0011092DF011092BC01CF9140
:1009000008950F931F93CF938C01C62F0E941D044F
:100910006C2F6460C8010E941D046C2F6B7FC8019E
:100920000E941D0482EC90E00197F1F7CF911F9196
:100930000F9108951F920F920FB60F9211242F93CB
:100940003F938F939F93AF93BF938091D0029091E9
:10095000D102A091D202B091D3023091EA0123E0FA
:10096000230F2D3720F40196A11DB11D05C026E8E7
:10097000230F0296A11DB11D2093EA018093D0029E
:100980009093D102A093D202B093D3028091EB0155
:100990009091EC01A091ED01B091EE010196A11DA5
:1009A000B11D8093EB019093EC01A093ED01B09306
:1009B000EE01BF91AF919F918F913F912F910F9039
:1009C0000FBE0F901F9018951F920F920FB60F92A7
:1009D00011242F933F934F935F936F937F938F9344
:1009E0009F93AF93BF93EF93FF938091E10187FFB4
:1009F00005C010928500109284001BC02091E10177
:100A0000022E000C330B8091F80290E02817390772
:100A100084F48091E101082E000C990BFC01EE0F8B
:100A2000FF1F8E0F9F1FFC01EC52FD4F808186FD42
:100A300015C08091E1018F5F8093E1012091E10178
:100A4000022E000C330B8091F80290E02817390732
:100A5000C4F48091E1018C3064F113C08091E10114
:100A6000082E000C990BFC01EE0FFF1F8E0F9F1F2D
:100A7000FC01EC52FD4F808160E08F730E94EF0714
:100A8000D8CF8091840090918500049680349C4951
:100A900018F480E49CE905C0809184009091850061
:100AA000049690938900809388008FEF8093E101F2
:100AB0003BC020918400309185008091E101082E97
:100AC000000C990BFC01EE0FFF1F8E0F9F1FFC0106
:100AD000EC52FD4F81819281820F931F9093890088
:100AE000809388008091E101082E000C990BFC0195
:100AF000EE0FFF1F8E0F9F1FFC01EC52FD4F8081F8
:100B000086FF12C08091E101082E000C990BFC01B8
:100B1000EE0FFF1F8E0F9F1FFC01EC52FD4F8081D7
:100B200061E08F730E94EF07FF91EF91BF91AF914A
:100B30009F918F917F916F915F914F913F912F91F5
:100B40000F900FBE0F901F9018950F931F93CF9388
:100B5000DF938C01C62FD42F607F642B0E94810409
:100B600080E1C89FB00111246D2BC801DF91CF91A6
:100B70001F910F910C94810441E00E94A50581E032
:100B800090E008951F920F920FB60F9211242F93A9
:100B90003F938F939F93EF93FF9320916602309141
:100BA000670280916802909169022817390731F431
:100BB0008091C1008F7D8093C10014C0E0916802D4
:100BC000F0916902EA5DFD4F208180916802909169
:100BD000690201968F739927909369028093680246
:100BE0002093C600FF91EF919F918F913F912F919C
:100BF0000F900FBE0F901F9018951F920F920FB677
:100C00000F9211242F934F935F938F939F93EF93A2
:100C1000FF938091C00082FD1CC02091C60080918E
:100C2000AA029091AB024091AC025091AD020196A4
:100C30008F7399274817590771F0E091AA02F09134
:100C4000AB02E659FD4F20839093AB028093AA023A
:100C500002C08091C600FF91EF919F918F915F91AB
:100C60004F912F910F900FBE0F901F90189585ED0B
:100C70008093BC008091BC0084FDFCCF1092F401F5
:100C800008950895CF93DF93CDB7DEB728970FB6B9
:100C9000F894DEBF0FBECDBF98E0E6E0F1E0DE01E4
:100CA000119601900D929A95E1F79091CF039817C4
:100CB00010F48FEF890FFE013196E80FF11DE80F58
:100CC000F11D6081606840E087EC93E028960FB6E4
:100CD000F894DEBF0FBECDBFDF91CF910C94A50578
:100CE0001F920F920FB60F9211242F933F934F93A1
:100CF0005F936F937F938F939F93AF93BF93EF9384
:100D0000FF938091B900887F803609F49CC068F514
:100D1000883209F45BC090F4803109F454C038F48F
:100D2000882309F4F6C0883009F44DC0F6C0883134
:100D300009F44CC0803209F45DC0EFC0803409F47E
:100D400068C048F4803309F455C0883309F0E5C021
:100D50008093F301D8C0803509F44FC0883509F479
:100D60005DC0883409F0D9C0D6C0883909F4C7C03D
:100D7000A8F4883709F467C038F4883609F463C0EA
:100D8000803709F460C0C9C0883809F4B8C0803918
:100D900009F45FC0803809F0C0C05BC0803B09F433
:100DA00086C038F4803A09F466C0883A09F47FC0F6
:100DB000B4C0803C09F4A7C0883C09F4A4C0883BB7
:100DC00009F48AC0AAC08091190210C0909118023B
:100DD00080911702981770F5E091180281E08E0F4C
:100DE00080931802F0E0E950FE4F80818093BB00B1
:100DF00085EC86C08093F3018EC0E091180281E0FB
:100E00008E0F809318028091BB00F0E0E950FE4FF6
:100E1000808390911802809117026EC0E0911802B1
:100E200081E08E0F809318028091BB00F0E0E950C2
:100E3000FE4F80838091F60181116DC081E0809327
:100E4000F50184EA61C083E08093F40110921C04F0
:100E5000CFCF80911C04803208F051C0E0911C0477
:100E600081E08E0F80931C048091BB00F0E0E45081
:100E7000FC4F8083BDCF85EC8093BC001092F401C1
:100E800080911C04803230F4E0911C04F0E0E450C6
:100E9000FC4F108260911C0470E0E091F101F09130
:100EA000F2018CEF93E0099510921C0436C084E0A7
:100EB0008093F4011092FB031092FA03E091EF018A
:100EC000F091F00109958091FA03811105C081E04C
:100ED0008093FA031092DA03E091FB0381E08E0F16
:100EE0008093FB03F0E0E652FC4F80818093BB00CF
:100EF0009091FB038091FA03981708F479CF85E865
:100F00008093BC000AC085EC8093BC001092F40171
:100F100004C01092F3010E943706FF91EF91BF9138
:100F2000AF919F918F917F916F915F914F913F9181
:100F30002F910F900FBE0F901F9018954091FA03BC
:100F4000262F30E0240F311D21323105DCF42091B1
:100F5000F4012430C9F4FC0180E090E0861758F4D5
:100F60003091FA032191DC01A652BC4FA30FB11DB1
:100F70002C930196F3CF8091FA03680F6093FA03E4
:100F800080E0089581E0089582E00895833081F043
:100F900028F4813099F08230A1F008958630A9F0CC
:100FA0008730B9F08430D1F4809180008F7D03C008
:100FB000809180008F7780938000089584B58F772B
:100FC00002C084B58F7D84BD08958091B0008F7775
:100FD00003C08091B0008F7D8093B00008951F936F
:100FE000CF93DF93282F30E0F901EA58FE4F849128
:100FF000F901E657FE4FD491F901E855FE4FC4912F
:10100000CC23C1F0162F81110E94C607EC2FF0E00F
:10101000EE0FFF1FE256FE4FA591B4919FB7F894D3
:10102000111104C08C91D095D82302C0EC91DE2B15
:10103000DC939FBFDF91CF911F910895CF93DF93F2
:1010400090E0FC01E657FE4F2491FC01E855FE4F6D
:101050008491882361F190E0880F991FFC01E45985
:10106000FE4FC591D491FC01E256FE4FA591B4917B
:10107000611109C09FB7F8948881209582238883E5
:10108000EC912E230BC0623061F49FB7F8948881F5
:10109000322F309583238883EC912E2B2C939FBF86
:1010A00006C08FB7F894E8812E2B28838FBFDF917D
:1010B000CF9108953FB7F8948091EB019091EC01A6
:1010C000A091ED01B091EE0126B5A89B05C02F3F80
:1010D00019F00196A11DB11D3FBFBA2FA92F982F5E
:1010E0008827820F911DA11DB11DBC01CD0142E0D9
:1010F000660F771F881F991F4A95D1F70895CF92E1
:10110000DF92EF92FF92CF93DF936B017C010E94FD
:101110005A08EB01C114D104E104F10479F00E94F2
:101120005A086C1B7D0B683E7340A0F381E0C81A1F
:10113000D108E108F108C851DC4FECCFDF91CF9125
:10114000FF90EF90DF90CF900895CF93DF93CDB7CE
:10115000DEB766970FB6F894DEBF0FBECDBF7894AA
:1011600084B5826084BD84B5816084BD85B58260AC
:1011700085BD85B5816085BD80916E00816080935D
:101180006E001092810080918100826080938100C6
:1011900080918100816080938100809180008160D6
:1011A000809380008091B10084608093B100809131
:1011B000B00081608093B00080917A008460809359
:1011C0007A0080917A00826080937A0080917A0020
:1011D000816080937A0080917A00806880937A00A1
:1011E0001092C100E091C202F091C3021082E0911E
:1011F000BE02F091BF021082E091C002F091C102E4
:1012000080E180831092CF02E091C402F091C50288
:10121000408181E090E09C010090CA0202C0220F50
:10122000331F0A94E2F7242B2083E091C402F0914B
:10123000C50240819C010090CB0202C0220F331FE7
:101240000A94E2F7242B2083E091C402F091C502B6
:1012500040819C010090CC0202C0220F331F0A94EF
:10126000E2F7242B2083E091C402F091C502208193
:101270000090CD0202C0880F991F0A94E2F7809572
:10128000822380831092DE011092DD011092E00132
:101290001092DF011092F40181E08093F601109228
:1012A000F50161E082E10E94EF0761E083E10E94C5
:1012B000EF078091B9008E7F8093B9008091B900CB
:1012C0008D7F8093B90088E48093B80085E4809393
:1012D000BC008DE891E09093F0018093EF018EE8DF
:1012E00091E09093F2018093F1011092CC038091F0
:1012F000D203823018F098E09093CC038093CF0310
:1013000062E370E080E090E00E947F086091D30388
:1013100087EC93E00E941D0468EE73E080E090E0AB
:101320000E947F0860E387EC93E00E9481040AE456
:1013300016E4C8010197F1F760E387EC93E00E949F
:101340008104C8010197F1F760E387EC93E00E9404
:10135000810482E592E00197F1F760E287EC93E087
:101360000E9481046091CC03606240E087EC93E0CE
:101370000E94A50584E08093CD0340E06CE087ECFB
:1013800093E00E94A50540E061E087EC93E00E94B5
:10139000A5058AE39FE10197F1F78091D0038823A7
:1013A00019F080E00E94420682E08093CE0340E084
:1013B00066E087EC93E00E94A50540E062E087ECE0
:1013C00093E00E94A5058AE39FE10197F1F788E089
:1013D0008093D30360E087EC93E00E941D0440E11A
:1013E00050E066E371E087EC93E00E94580269E008
:1013F00070E087ED93E00E9465036AE070E084EDA1
:1014000093E00E9465036AE570E087ED93E00E9437
:101410000A016CE570E084ED93E00E940A011092ED
:101420008703109288031092890310928A03109206
:101430007F031092800310928103109282038091A7
:10144000C5030091A9031091AA03811145C0D801D9
:10145000CD90DD90ED90FC90C092B103D092B2039C
:10146000E092B303F092B403E091A703F091A803D4
:1014700080819181A281B3818093B5039093B6035B
:10148000A093B703B093B8038090C1039090C203B8
:10149000A090C303B090C403A5019401C701B60195
:1014A0000E940E18181684F08090BD039090BE0321
:1014B000A090BF03B090C003A5019401C701B6017D
:1014C0000E94E51687FF08C08092B1039092B20394
:1014D000A092B303B092B40381E08093C5036091FE
:1014E000B9037091BA038091BB039091BC030E9431
:1014F0005C179B01AC0160E070E088EC92E40E9414
:10150000EA166B017C019B01AC0160919B03709119
:101510009C0380919D0390919E030E9413186093F9
:101520009B0370939C0380939D0390939E03A7015C
:10153000960160919F037091A0038091A103909107
:10154000A2030E94EA1660939F037093A003809306
:10155000A1039093A20384E690E0A0E0B0E0809322
:10156000B9039093BA03A093BB03B093BC03C12CFF
:10157000D12C80E4E82E80ECF82EC092BD03D092EE
:10158000BE03E092BF03F092C003412C512C90E4C3
:10159000692E762C4092C1035092C2036092C3031D
:1015A0007092C403F80180809180A280B380A3016F
:1015B0009201C501B4010E940E1818163CF4D8011E
:1015C0004D925D926D927C9213970FC020E030E0B7
:1015D00040E450ECC501B4010E94E51687FF05C048
:1015E000F801C082D182E282F3828090B1039090B0
:1015F000B203A090B303B090B403C090C103D090E5
:10160000C203E090C303F090C403A7019601C50193
:10161000B4010E940E18181684F0C090BD03D0903B
:10162000BE03E090BF03F090C003A7019601C5017F
:10163000B4010E94E51687FF08C0C092B103D092A2
:10164000B203E092B303F092B40380916F039091E0
:10165000700397FD08C061E00E941E0860E0809161
:101660006F030E94EF0781E080936A0360E070E0FF
:10167000E0E0F0E040E050E080916B0390916C037B
:101680004817590770F5809171032FEF882321F0D7
:10169000829FC0011124292F30917703A0917403F8
:1016A00080917203909173033A1303C08E0F9F1FB2
:1016B00006C0860F971FDC01A30FB11D1C9230914D
:1016C0007403DC01A30FB11D2C9330917503DC0171
:1016D000A30FB11D1C9230917603DC01A30FB11D45
:1016E0002C934F5F5F4F33966C5F7F4F4C305105AB
:1016F00019F6609171036B3021F1209172033091E2
:101700007303615031F070E08FEF9AE00E941D1B6F
:1017100002C060E070E0F90140916D0350916E03EA
:10172000CF01821B930B8417950740F44081469F9D
:10173000C001479F900D11249193EECF8BE08093D1
:1017400071038091720390917303892B09F4A2C0F5
:101750000E945A08009178031091790320917A032E
:1017600030917B03DC01CB01801B910BA20BB30BEF
:101770008C329140A105B10558F3F89480916D0326
:1017800090916E039A838983E0917203F0917303C1
:10179000DF0111968081898790916903E0917C0334
:1017A000F0917D0380917E03992309F42EC09081EE
:1017B000982B98879081809589238F838F818C8344
:1017C00088E08B8358856F8149853B812C81898195
:1017D0009A81508347FD252F3A952083262F39F093
:1017E000441F00C000006083000000C0F2CF38E05A
:1017F0004D9160830000019761F7F0937D03E093C2
:101800007C0349873B832C8338C09081982B988731
:101810009081809589238F838F818E8388E08D834B
:1018200058856F8149853D812E8189819A815083B8
:1018300047FD252F00C000C0208300C000C000C0AD
:1018400000C000C060830000262F3A9541F0441F7D
:10185000000000C000C000C000C000C0E8CF38E0F9
:101860004D9100C0608300C0019709F7F0937D039C
:10187000E0937C0349873D832E839A838983789400
:101880000E945A08609378037093790380937A03D7
:1018900090937B038EEA92E00E9444021816190688
:1018A00004F58EEA92E00E940802E0915C018A321F
:1018B00079F0AE2FB0E0A857BE4F8C93EF5FE930C0
:1018C00018F4E0935C010DC048E040935C0109C04E
:1018D000F0E0E857FE4F108210925C0151E0509307
:1018E0009A0180919A01813009F06EC268E871E036
:1018F00081E991E00E944F1667E471E081E991E08F
:101900000E942E120E940D129093870180938601EF
:1019100069E471E080E090E00E942E120E940D12B6
:101920008C01909385018093840189E093E00E946B
:1019300080029B01AC0160910503709106038091C8
:101940000703909108030E9413186093FD0270939F
:10195000FE028093FF02909300038DE293E00E94C9
:1019600080029B01AC016091050370910603809198
:101970000703909108030E9413186093010370936A
:101980000203809303039093040389E093E00E9491
:1019900080026B017C018DE293E00E9480029B013A
:1019A000AC01C701B6010E94791620E030E040E0AA
:1019B0005FE30E94131820910503309106034091C4
:1019C0000703509108030E94131826E636E646E600
:1019D00050E40E9413186B017C016093F90270932C
:1019E000FA028093FB029093FC0260938001709353
:1019F00081018093820190938301B801110F880BBC
:101A0000990B0E945E174B015C012DEC3CEC4CE401
:101A10005EE3C701B6010E941318A50194010E945C
:101A200013186093870370938803809389039093BE
:101A30008A0322E539E44DE15AE3C501B4010E946D
:101A4000131860937F0370938003809381039093B6
:101A500082038091C503882309F44AC18FB7F894A3
:101A60002091D0023091D1024091D2025091D30204
:101A70002B8B3C8B4D8B5E8B8FBF8091AD039091F8
:101A8000AE03A091AF03B091B0034B895C896D891F
:101A90007E89481B590B6A0B7B0B8091B90390918F
:101AA000BA03A091BB03B091BC03481759076A075A
:101AB0007B0708F41DC1E091A703F091A803808182
:101AC0009181A281B3818A879B87AC87BD87E09192
:101AD000AB03F091AC039C01AD0160817181828107
:101AE00093810E9478164B015C012091B5033091DF
:101AF000B6034091B7035091B8036A857B858C8506
:101B00009D850E9478166B017C0120919B0330918A
:101B10009C0340919D0350919E03C501B4010E9416
:101B200013182091B1033091B2034091B303509147
:101B3000B4030E9479162B013C016093B1037093AA
:101B4000B2038093B3039093B4039091C6039E872E
:101B500091111AC0209197033091980340919903F5
:101B600050919A03C701B6010E9413189B01AC0162
:101B7000C301B2010E9478166093B1037093B2035F
:101B80008093B3039093B4034090B1035090B20399
:101B90006090B3037090B4031091C1030091C2032D
:101BA0003090C3032090C403212F302F432D522D9A
:101BB000C301B2010E940E1818162CF4812F902F29
:101BC000A32DB22D16C02091BD033091BE034091CC
:101BD000BF035091C0032F87388B498B5A8BC301A9
:101BE000B2010E94E51687FF0CC08F859889A989EC
:101BF000BA898093B1039093B203A093B303B093D7
:101C0000B4039E85992379F020919703309198032E
:101C10004091990350919A03C501B4010E94131891
:101C20004B015C0103C0812C912C540120919F0336
:101C30003091A0034091A1035091A203C701B601C6
:101C40000E9413189B01AC016091B1037091B20323
:101C50008091B3039091B4030E947816A50194017A
:101C60000E9479166B017C019B01AC01612F702FE2
:101C7000832D922D0E94E51687FD16C01091BD039D
:101C80000091BE033090BF032090C003212F302F5E
:101C9000432D522DB601C7010E94E51687FD04C0F1
:101CA0001C2D0D2D3E2C2F2CE091A903F091AA03A1
:101CB000812F902FA32DB22D80839183A283B38394
:101CC0002A853B854C855D852093B5033093B6030B
:101CD0004093B7035093B8038B899C89AD89BE8923
:101CE0008093AD039093AE03A093AF03B093B00382
:101CF0000091840110918501B801012E000C880B20
:101D0000990B0E945E179B01AC0160918303709157
:101D1000840380918503909186030E9479166093D5
:101D2000830370938403809385039093860360916B
:101D300086017091870187ED93E00E940A01B80146
:101D400084ED93E00E940A0160918001709181010D
:101D5000809182019091830101E711E022E044E04B
:101D60000E94ED1181E00E944206809185018F93CF
:101D7000809184018F93809187018F938091860158
:101D80008F93C8019F930F93ABE4B1E0BF93AF93E0
:101D90002DE531E03F932F930E945616EDE5F1E0DB
:101DA00001900020E9F73197AF014D5551406DE5A5
:101DB00071E087EC93E00E94580210929A010FB6EE
:101DC000F894DEBF0FBECDBF0E94540263CD809158
:101DD0007203909173030E94C61580916F039091D6
:101DE000700397FD03C060E00C941E0808954F92A5
:101DF0005F926F927F928F929F92AF92BF92CF929B
:101E0000DF92EF92FF92CF93DF9310921D02109218
:101E10001C0288EE93E0A0E0B0E080931E02909355
:101E20001F02A0932002B093210222E131E03093FF
:101E30001B0220931A021092B1021092B0028093FA
:101E4000B2029093B302A093B402B093B50282E2BF
:101E500091E09093AF028093AE028AE692E0909375
:101E6000BB028093BA0286E292E09093BD02809317
:101E7000BC0285EC90E09093BF028093BE0284EC9C
:101E800090E09093C1028093C00280EC90E0909328
:101E9000C3028093C20281EC90E09093C5028093CC
:101EA000C40282EC90E09093C7028093C60286EC55
:101EB00090E09093C9028093C80284E08093CA02A4
:101EC00083E08093CB0287E08093CC0285E080930F
:101ED000CD0281E08093CE028091F8028C30A0F494
:101EE00091E0980F9093F8028093D70390E0FC0163
:101EF000EE0FFF1F8E0F9F1FFC01EC52FD4F88EB72
:101F00009BE09283818303C08FEF8093D7038091FE
:101F1000F8028C30A0F491E0980F9093F80280932F
:101F2000D40390E0FC01EE0FFF1F8E0F9F1FFC01FA
:101F3000EC52FD4F88EB9BE09283818303C08FEFCF
:101F40008093D4031092CA031092C90382E391E0F4
:101F50009093C8038093C7031092D00387E28093C5
:101F6000CB0384E18093D10384E08093D203109269
:101F7000D30383E893E09093AA038093A90387E8AF
:101F800093E09093A8038093A7038FE793E0909347
:101F9000AC038093AB031092C5031092BD03109263
:101FA000BE031092BF031092C00380E090E0AFE741
:101FB000B3E48093C1039093C203A093C303B0938F
:101FC000C40384E690E0A0E0B0E08093B90390936E
:101FD000BA03A093BB03B093BC031092A403109266
:101FE000A30381E090E09093A6038093A5038093E0
:101FF000C60340E050E060E87FE340938B035093DA
:102000008C0360938D0370938E03C12CD12CE12C33
:10201000E0E4FE2EC0928F03D0929003E0929103F1
:10202000F0929203109293031092940310929503EE
:1020300010929603409397035093980360939903EB
:1020400070939A034DEC5CEC6CE47EE340939B034D
:1020500050939C0360939D0370939E0310929F0383
:102060001092A0031092A1031092A2039FB7F894BC
:102070004091D0025091D1026091D2027091D3026E
:102080009FBFC090B903D090BA03E090BB03F0901B
:10209000BC034C195D096E097F094093AD03509351
:1020A000AE036093AF037093B00310926A03109273
:1020B0007103109278031092790310927A031092B0
:1020C0007B0310927703109274038093750392E060
:1020D000909376038093690384E290E090936E037B
:1020E00080936D030E942E15909373038093720367
:1020F000009761F024E2FC0111922A95E9F78CE047
:1021000090E090936C0380936B0308C010926E0371
:1021100010926D0310926C0310926B0387E090E0B5
:102120009093700380936F0380916A03882341F03A
:1021300061E087E00E941E0860E087E00E94EF07F0
:10214000EFEAF1E0E491F0E0EE0FFF1FE256FE4F00
:102150008591949190937D0380937C03E1E9F1E074
:10216000E491E0937E03C8E0D0E0D0930A03C093EB
:102170000903D0930C03C0930B039CED492E9FE001
:10218000592E99E4692E90E4792E40921D035092C5
:102190001E0360921F037092200360E088E00E949B
:1021A0001E0860911D0370911E0380911F03909182
:1021B00020039B01AC010E9479166B017C016091A8
:1021C0000B0370910C03072E000C880B990B0E94D7
:1021D0005E179B01AC01C701B6010E94EA1660932D
:1021E000250370932603809327039093280310926E
:1021F0000E0310920D03812C912C20E8A22E2FE3C8
:10220000B22E80920F0390921003A0921103B0920D
:1022100012031092130310921503109216031092DA
:102220001703109218031092190310921A031092B8
:102230001B0310921C031092210310922203109290
:10224000230310922403C12CD12C30E8E32E3FEB62
:10225000F32EC0922903D0922A03E0922B03F0922E
:102260002C038DE090E090932E0380932D03D09368
:102270003003C0932F034092410350924203609277
:1022800043037092440360E00E941E086091410382
:102290007091420380914303909144039B01AC01F0
:1022A0000E9479162B013C0160912F03709130033D
:1022B000072E000C880B990B0E945E179B01AC0146
:1022C000C301B2010E94EA166093490370934A0366
:1022D00080934B0390934C0310923203109231037E
:1022E0008092330390923403A0923503B092360368
:1022F000109237031092390310923A0310923B0365
:1023000010923C0310923D0310923E0310923F0343
:102310001092400310924503109246031092470317
:1023200010924803C0924D03D0924E03E0924F03A7
:10233000F09250031092F9021092FA021092FB02EE
:102340001092FC0281E398E0ACE2BDE380930503C8
:1023500090930603A0930703B093080310925903C8
:1023600010925A0310925B0310925C031092510377
:10237000109252031092530310925403109255037B
:1023800010925603109257031092580310925D0357
:1023900010925E0310925F0310926003109261032B
:1023A000109262031092630310926403C09265035B
:1023B000D0926603E0926703F0926803DF91CF91B9
:1023C000FF90EF90DF90CF90BF90AF909F908F9055
:1023D0007F906F905F904F900895EF920F931F93AF
:1023E000CF93DF93E80147FD02C034E001C034E140
:1023F000042E000C550B57FF03C051954195510910
:10240000E32E022F242FAE010E946212CE01DF9133
:10241000CF911F910F91EF900895FC018827992784
:10242000E89421912032E9F3293010F02E30C8F3DE
:102430002B3241F02D3239F4689404C00E945A12B4
:10244000820F911D219120532A30C0F31EF49095E4
:1024500081959F4F0895F8940C94371B4DE154E0FB
:102460000E9433120895FA01A191B081009719F4E6
:102470001097E1F0CD01DC01CD010D90002011F4A9
:10248000C00113C0FB012191222319F02015D9F7B7
:10249000F3CFFB012191201519F41E92119606C06D
:1024A0002223C1F70D900020A1F7D001FA01A193DA
:1024B000B08308957AE0979F902D879F802D910D8E
:1024C00011240895A9E0B0E0E8E6F2E10C94CC1400
:1024D0006A01122FB02E2BE3201720F0FF24F39473
:1024E000F00E02C02CE3F22E0F2D27E0AE014F5F5D
:1024F0005F4F0E94BC13BC014981842F89708130D9
:1025000031F0E1FC06C0E0FE06C090E205C09DE2AD
:1025100003C09BE201C090E05E2D507143FF3CC0C0
:10252000911102C083E001C084E0811718F4212FCB
:10253000281B01C020E051110BC0F601822F30E2B0
:10254000882319F031938150FBCFC20ED11C20E0BB
:10255000992329F0D6019C93F60131966F01C601AB
:102560000396E2FE0AC03EE4D6013C9341E4119694
:102570004C93119712963C9306C03EE6F6013083C9
:1025800041E641833283FC01322F40E2332309F4D8
:1025900042C041933150FACF42FF44C0911102C072
:1025A00083E001C084E0811718F4212F281B01C0AB
:1025B00020E051110BC0F601822F30E2882319F080
:1025C00031938150FBCFC20ED11C20E0992329F01A
:1025D000D6019C93F60131966F01C6010396E2FE87
:1025E0000BC039E4D6013C933EE411963C9311971D
:1025F00036E412963C9307C039E6F60130833EE696
:10260000318336E63283FC01322F40E2332319F066
:1026100041933150FBCFFC01E20FF11D10828EEF90
:102620009FEFA6C021E030E0911102C020E030E031
:10263000161617061CF4FB01319602C0E1E0F0E02B
:102640002E0F3F1FBB2021F0EB2DF0E0319602C092
:10265000E0E0F0E02E0F3F1FE12FF0E02E173F07E4
:102660001CF4121B212F01C020E08E2D887159F41B
:10267000F601822F30E2882319F031938150FBCF8D
:10268000C20ED11C20E0992329F0D6019C93F601BB
:1026900031966F0151110BC0F601822F90E3882310
:1026A00019F091938150FBCFC20ED11C20E00F2D69
:1026B000060F9A81342F307144FF03C0913309F41F
:1026C0000150101624F4093018F008E001C001E0B0
:1026D000AB0177FF02C040E050E0FB01E41BF50BCB
:1026E000A1E0B0E0AC0FBD1FEA0FFB1F8EE2A82EE9
:1026F0004B01801A91080B2D10E0119501951109DD
:102700004F3FBFEF5B0721F4D601AC9211966D01EC
:10271000641775072CF08416950614F4818101C0A6
:1027200080E3415051093196D60111967D01401741
:10273000510724F0D6018C936701E2CF6417750727
:1027400039F4963320F4953319F4311101C081E343
:10275000F6018083F701822F90E2882319F091938C
:102760008150FBCFF701E20FF11D108280E090E075
:102770002996ECE00C94E814283008F027E0332781
:10278000DA01990F311D87FD916000966105710591
:1027900039F432602E5F3D9330E32A95E1F70895D6
:1027A0009F3F30F080387105610509F03C5F3C5F68
:1027B0003D93913008F08068911DDF93CF931F9374
:1027C0000F93FF92EF92192F987F9695E92F969588
:1027D0009695E90FFF27EE53FF4F99273327EE24F5
:1027E000FF24A701E70105900894079428F4360F09
:1027F000E71EF81E491F511D660F771F881F991F7E
:102800000694A1F70590079428F4E70EF81E491FD7
:10281000561FC11D770F881F991F661F0694A1F7C9
:102820000590079428F4F80E491F561FC71FD11DA5
:10283000880F991F661F771F0694A1F705900794CC
:1028400020F4490F561FC71FD81F990F661F771F07
:10285000881F0694A9F784911095177041F0D695BA
:10286000C79557954795F794E7941A95C1F7E8E609
:10287000F0E06894159015913591659195910590CA
:102880007FE27395E118F10A430B560BC90BD0098F
:10289000C0F7E10CF11E431F561FC91FD01D7EF467
:1028A000703311F48A95E6CFE894015030F0080FA8
:1028B0000AF40027021708F4202F2395022F7A33F9
:1028C00028F079E37D932A95E9F710C07D932A9546
:1028D00089F6069497956795379517951794E1189B
:1028E000F10A430B560BC90BD00998F023957E9142
:1028F00073957A3308F070E37C932013B8F77E91D8
:1029000070617D9330F0839571E37D9370E32A9538
:10291000E1F71124EF90FF900F911F91CF91DF917C
:10292000992787FD90950895052E97FB1EF4009436
:102930000E94AB1457FD07D00E94FD1407FC03D082
:102940004EF40C94AB1450954095309521953F4F23
:102950004F4F5F4F089590958095709561957F4F8B
:102960008F4F9F4F08950E941F15A59F900DB49FF4
:10297000900DA49F800D911D11240895B7FF0C9414
:10298000B3140E94B314821B930B08952F923F92AD
:102990004F925F926F927F928F929F92AF92BF926F
:1029A000CF92DF92EF92FF920F931F93CF93DF931B
:1029B000CDB7DEB7CA1BDB0B0FB6F894DEBF0FBE78
:1029C000CDBF09942A88398848885F846E847D84C5
:1029D0008C849B84AA84B984C884DF80EE80FD80C7
:1029E0000C811B81AA81B981CE0FD11D0FB6F8943D
:1029F000DEBF0FBECDBFED010895A1E21A2EAA1BC6
:102A0000BB1BFD010DC0AA1FBB1FEE1FFF1FA2179E
:102A1000B307E407F50720F0A21BB30BE40BF50B9B
:102A2000661F771F881F991F1A9469F76095709524
:102A3000809590959B01AC01BD01CF010895A29FA7
:102A4000B001B39FC001A39F700D811D1124911D82
:102A5000B29F700D811D1124911D08950F931F9336
:102A6000CF93DF938230910510F482E090E0E09103
:102A70002104F091220420E030E0A0E0B0E03097A3
:102A800019F1408151810281138148175907C8F01B
:102A90008417950769F4109731F012960C931297EA
:102AA00013961C9327C0009321041093220422C084
:102AB0002115310519F04217530718F49A01BD0189
:102AC000EF01DF01F801DBCF21153105F9F0281BFB
:102AD000390B2430310580F48A819B8161157105A1
:102AE00021F0FB019383828304C09093220480939E
:102AF0002104FE01329644C0FE01E20FF31F8193D0
:102B0000919322503109398328833AC020911F04C0
:102B100030912004232B41F42091020130910301D4
:102B20003093200420931F04209100013091010173
:102B30002115310541F42DB73EB740910401509164
:102B40000501241B350BE0911F04F0912004E217CE
:102B5000F307A0F42E1B3F0B2817390778F0AC01C0
:102B60004E5F5F4F2417350748F04E0F5F1F50939D
:102B7000200440931F048193919302C0E0E0F0E0B1
:102B8000CF01DF91CF911F910F910895CF93DF93E4
:102B9000009709F481C0FC01329713821282A09140
:102BA0002104B0912204109781F420813181820F99
:102BB000931F20911F04309120042817390751F5E5
:102BC000F0932004E0931F0467C0ED0120E030E0A3
:102BD000CE17DF0740F44A815B819E014115510504
:102BE000F1F0EA01F5CFD383C28340815181840F94
:102BF000951FC817D90759F488819981840F951FAB
:102C00000296918380838A819B819383828321159D
:102C1000310529F4F0932204E09321043DC0E90139
:102C2000FB83EA8349915991C40FD51FEC17FD0727
:102C300061F480819181840F951F0296E901998347
:102C40008883828193819B838A83E0E0F0E01296FF
:102C50008D919C911397009719F0FD01DC01F7CF3E
:102C60008D919C9111979D012E5F3F4F820F931F75
:102C700020911F04309120042817390769F43097F8
:102C800029F4109222041092210402C013821282AD
:102C9000B0932004A0931F04DF91CF910895FB010E
:102CA000DC0101900D920020E1F70895AEE0B0E064
:102CB000ECE5F6E10C94D4140D891E8986E08C8332
:102CC0001A8309838FEF9FE79E838D83AE01475E52
:102CD0005F4F6F89788DCE0101960E948018EF8139
:102CE000F885E00FF11F10822E96E4E00C94F014AA
:102CF0005058BB27AA270E9490160C94D4170E9404
:102D0000C61738F00E94CD1720F039F49F3F19F410
:102D100026F40C94C3170EF4E095E7FB0C94BD1752
:102D2000E92F0E94E51758F3BA1762077307840763
:102D3000950720F079F4A6F50C9407180EF4E095A9
:102D40000B2EBA2FA02D0B01B90190010C01CA0165
:102D5000A0011124FF27591B99F0593F50F4503E10
:102D600068F11A16F040A22F232F342F4427585F02
:102D7000F3CF469537952795A795F0405395C9F71A
:102D80007EF41F16BA0B620B730B840BBAF09150D2
:102D9000A1F0FF0FBB1F661F771F881FC2F70EC071
:102DA000BA0F621F731F841F48F487957795679544
:102DB000B795F7959E3F08F0B0CF9395880F08F030
:102DC0009927EE0F9795879508950E94991708F413
:102DD00081E008950E94FE160C94D4170E94CD172E
:102DE00058F00E94C61740F029F45F3F29F00C9478
:102DF000BD1751110C9408180C94C3170E94E517C5
:102E000068F39923B1F3552391F3951B550BBB2719
:102E1000AA2762177307840738F09F5F5F4F220F5E
:102E2000331F441FAA1FA9F335D00E2E3AF0E0E855
:102E300032D091505040E695001CCAF72BD0FE2F9F
:102E400029D0660F771F881FBB1F26173707480733
:102E5000AB07B0E809F0BB0B802DBF01FF279358EB
:102E60005F4F3AF09E3F510578F00C94BD170C94DB
:102E700008185F3FE4F3983ED4F3869577956795FD
:102E8000B795F7959F5FC9F7880F911D9695879520
:102E900097F90895E1E0660F771F881FBB1F62173F
:102EA00073078407BA0720F0621B730B840BBA0BFD
:102EB000EE1F88F7E0950895E89409C097FB3EF46B
:102EC00090958095709561957F4F8F4F9F4F992377
:102ED000A9F0F92F96E9BB279395F69587957795F5
:102EE0006795B795F111F8CFFAF4BB0F11F460FFB5
:102EF0001BC06F5F7F4F8F4F9F4F16C0882311F00D
:102F000096E911C0772321F09EE8872F762F05C020
:102F1000662371F096E8862F70E060E02AF09A95BB
:102F2000660F771F881FDAF7880F9695879597F9B0
:102F30000895990F0008550FAA0BE0E8FEEF16164A
:102F40001706E807F907C0F012161306E407F5079D
:102F500098F0621B730B840B950B39F40A2661F011
:102F6000232B242B252B21F408950A2609F4A140B4
:102F7000A6958FEF811D811D089597F99F6780E8C1
:102F800070E060E008959FEF80EC089500240A94BB
:102F90001616170618060906089500240A94121634
:102FA0001306140605060895092E0394000C11F467
:102FB000882352F0BB0F40F4BF2B11F460FF04C014
:102FC0006F5F7F4F8F4F9F4F089557FD9058440F6D
:102FD000551F59F05F3F71F04795880F97FB991F78
:102FE00061F09F3F79F08795089512161306140635
:102FF000551FF2CF4695F1DF08C0161617061806C2
:10300000991FF1CF86957105610508940895E8949C
:10301000BB2766277727CB0197F908950E94991758
:1030200008F48FEF08950E9426180C94D4170E947C
:10303000C61738F00E94CD1720F0952311F00C949C
:10304000BD170C94C31711240C9408180E94E5179F
:1030500070F3959FC1F3950F50E0551F629FF001EB
:10306000729FBB27F00DB11D639FAA27F00DB11D04
:10307000AA1F649F6627B00DA11D661F829F22278D
:10308000B00DA11D621F739FB00DA11D621F839F14
:10309000A00D611D221F749F3327A00D611D231FEA
:1030A000849F600D211D822F762F6A2F11249F5738
:1030B00050409AF0F1F088234AF0EE0FFF1FBB1F3B
:1030C000661F771F881F91505040A9F79E3F5105FA
:1030D00080F00C94BD170C9408185F3FE4F3983E01
:1030E000D4F3869577956795B795F795E7959F5FA4
:1030F000C1F7FE2B880F911D9695879597F9089536
:10310000ABE0B0E0E6E8F8E10C94C6146C017B019A
:103110008A01FC0117821682838181FFCCC1CE0116
:1031200001963C01F6019381F70193FD859193FF90
:1031300081917F01882309F4BAC1853239F493FD66
:10314000859193FF81917F01853229F4B60190E04A
:103150000E94771AE7CF912C212C312CFFE1F31537
:10316000D8F08B3279F038F4803279F08332A1F4E0
:10317000232D20611DC08D3261F0803369F4232D31
:10318000216016C0832D8260382EE32DE4603E2E30
:103190002AC0F32DF8601DC037FC2DC020ED280F8C
:1031A0002A3040F08E32B9F436FC81C1232D2064E0
:1031B000322E19C036FE06C08AE0989E200D1124DA
:1031C000922E11C0EAE02E9E200D1124222EF32D06
:1031D000F0623F2E08C08C3621F4832D8068382E93
:1031E00002C0883641F4F70193FD859193FF8191E8
:1031F0007F018111B3CF982F9F7D9554933028F490
:103200000C5F1F4F9FE399830DC0833631F08337E6
:1032100071F0833509F059C021C0F801808189839C
:103220000E5F1F4F88248394912C530113C02801F3
:10323000F2E04F0E511CF801A080B18036FE03C0B1
:10324000692D70E002C06FEF7FEFC5010E946C1A1C
:103250004C018201F32DFF773F2E16C0280122E09A
:10326000420E511CF801A080B18036FE03C0692DCA
:1032700070E002C06FEF7FEFC5010E94611A4C0140
:10328000F32DF0683F2E820133FC1BC0822D90E0AD
:1032900088169906B0F4B60180E290E00E94771A91
:1032A0002A94F4CFF50137FC859137FE81915F01B7
:1032B000B60190E00E94771A21102A9421E0821A28
:1032C00091088114910471F7E8C0843611F08936B1
:1032D00041F5F80137FE07C06081718182819381D9
:1032E0000C5F1F4F08C060817181072E000C880B96
:1032F000990B0E5F1F4FF32DFF763F2E97FF09C0EE
:1033000090958095709561957F4F8F4F9F4FF06896
:103310003F2E2AE030E0A3010E94B31A882E8618BF
:1033200045C0853731F4232D2F7EB22E2AE030E0C0
:1033300025C0932D997FB92E8F36C1F018F48835AA
:1033400079F0B5C0803719F0883721F0B0C0E92F87
:10335000E061BE2EB4FE0DC0FB2DF460BF2E09C08F
:1033600034FE0AC0292F2660B22E06C028E030E0C5
:1033700005C020E130E002C020E132E0F801B7FEF4
:1033800007C060817181828193810C5F1F4F06C0ED
:103390006081718180E090E00E5F1F4FA3010E9469
:1033A000B31A882E8618FB2DFF773F2E36FE0DC0F0
:1033B000232D2E7FA22E891458F434FE0BC032FC2C
:1033C00009C0832D8E7EA82E05C0B82CA32C03C067
:1033D000B82C01C0B92CA4FE0FC0FE01E80DF11DF0
:1033E0008081803321F49A2D997EA92E09C0A2FEF6
:1033F00006C0B394B39404C08A2D867809F0B394C0
:10340000A3FC11C0A0FE06C0B21488F4280C922CB4
:103410009B180EC0B21460F4B60180E290E00E94E6
:10342000771AB394F7CFB21418F42B1802C0982C63
:10343000212CA4FE10C0B60180E390E00E94771A10
:10344000A2FE17C0A1FC03C088E790E002C088E597
:1034500090E0B6010CC08A2D867859F0A1FE02C01A
:103460008BE201C080E2A7FC8DE2B60190E00E94F1
:10347000771A891438F4B60180E390E00E94771A35
:103480009A94F7CF8A94F301E80DF11D8081B6017B
:1034900090E00E94771A8110F5CF222009F442CEE5
:1034A000B60180E290E00E94771A2A94F6CFF601E6
:1034B0008681978102C08FEF9FEF2B96E2E10C94FB
:1034C000E214FC010590615070400110D8F780951E
:1034D00090958E0F9F1F0895FC01615070400190E0
:1034E0000110D8F7809590958E0F9F1F08950F9328
:1034F0001F93CF93DF93FB01238121FD03C08FEF47
:103500009FEF2CC022FF16C0468157812481358150
:103510004217530744F4A081B1819D012F5F3F4FB3
:10352000318320838C93268137812F5F3F4F3783F0
:10353000268314C08B01EC01FB010084F185E02D92
:103540000995892BE1F6D80116968D919C911797D4
:10355000019617969C938E931697CE01DF91CF918B
:103560001F910F910895FA01AA27283051F12031B7
:1035700081F1E8946F936E7F6E5F7F4F8F4F9F4F07
:10358000AF4FB1E03ED0B4E03CD0670F781F891F49
:103590009A1FA11D680F791F8A1F911DA11D6A0F17
:1035A000711D811D911DA11D20D009F468943F91CA
:1035B0002AE0269F11243019305D3193DEF6CF01C9
:1035C0000895462F4770405D4193B3E00FD0C9F78F
:1035D000F6CF462F4F70405D4A3318F0495D31FDFC
:1035E0004052419302D0A9F7EACFB4E0A69597954F
:1035F000879577956795BA95C9F700976105710525
:1036000008959B01AC010A2E06945795479537956E
:103610002795BA95C9F7620F731F841F951FA01DC8
:103620000895991B79E004C0991F961708F0961B1E
:10363000881F7A95C9F780950895AA1BBB1B51E195
:1036400007C0AA1FBB1FA617B70710F0A61BB70B12
:10365000881F991F5A95A9F780959095BC01CD01B7
:103660000895EE0FFF1F0590F491E02D099410E0EE
:10367000CFEDD0E004C0FE010E94311B2196C03E78
:08368000D107C9F7F894FFCF50
:103688000000230420000000400014005400000043
:103698000000EE03C103B3019F0190018F010000F8
:1036A8000000BB015802440208022802FD01000084
:1036B8000000BC0558024D652C204A6574736F6E76
:1036C8002E20596F753F002C002A00257320533A8D
:0C36D80025336420543A253364200000A0
:00000001FF
